:020000040800F2
:100000008004002009010008F3140008F31300081D
:10001000F114000851010008751C000800000000E0
:10002000000000000000000000000000991500081A
:100030005301000800000000151500089B1500087A
:100040002301000823010008230100082301000800
:1000500023010008171500082301000823010008E8
:1000600023010008230100082301000823010008E0
:1000700023010008230100082301000823010008D0
:1000800023010008230100082301000823010008C0
:1000900023010008230100082301000823010008B0
:1000A0002301000823010008751600082301000839
:1000B0002301000823010008230100082301000890
:1000C0002301000823010008230100082301000880
:1000D0002301000823010008691C0008230100080F
:1000E0002301000823010008230100082301000860
:1000F00023010008DFF80CD000F018F80048004792
:10010000951C0008800400200648804706480047E8
:10011000FEE7FEE7FEE7FEE7FEE7FEE7FEE7FEE7B7
:10012000FEE7FEE725160008F5000008064C074D1F
:1001300006E0E06840F0010394E8070098471034B7
:10014000AC42F6D3FFF7DAFF081D0008281D0008AF
:10015000FEE770472DE9F84FDFF860B100234FF05C
:10016000010C4FF0030A4FF00F090BF1040E9DE054
:100170000CFA03F614EA06027ED04C68022C01D079
:10018000122C0ED1DC0800EB8408D8F820405D0763
:10019000EF0E09FA07F5AC430D69BD402543C8F8D9
:1001A000205007685D0091F804800AFA05F408F011
:1001B0000308A74308FA05F848EA0708C0F80080D2
:1001C0004F68012F05D0022F03D0112F01D0122F1D
:1001D00011D18768D1F80C80A74308FA05F848EADE
:1001E0000708C0F808804768B7430E79C6F30016C1
:1001F0009E403E434660C668A6438C68AC4034438C
:10020000C4604C68E40050D52D4C256845F00105CC
:100210002560246823F0030504F001040094294CB0
:100220002E19B4689D072F0F09FA07F5AC43264D28
:10023000A84201D100250FE0244DA84201D101259B
:100240000AE0234DA84201D1022505E0214DA84234
:1002500001D1032500E00525BD402543B560DBF84D
:1002600000405D464E689443F60300D514432C606D
:100270007546DEF8004000E017E04E689443B60390
:1002800000D514432C600D4D08352C684E689443FE
:10029000F60200D514432C60084D0C352C684E68CE
:1002A0009443B60200D514432C605B1C0A681446C4
:1002B000DA407FF45DAFBDE8F88F00000004014034
:1002C00020380240000001400000024000040240CB
:1002D00000080240000C02400AB181617047090425
:1002E000FBE70000014800687047000000000020A4
:1002F00002480168491C01607047000000000020AE
:1003000010B5032000F098F8002000F005F800F088
:1003100017F8002010BD000010B5044607484FF440
:100320007A710068B0FBF1F000F0B3FD00222146C5
:10033000501E00F061F8002010BD000004000020F5
:10034000264808B5016841F000410160016801F0EC
:1003500000410091011F0A6842F001020A60096829
:1003600001F001010091016841F0805101600068D5
:1003700000F080500090032000F05EF8002211464B
:100380006FF00B0000F038F8002211466FF00A0001
:1003900000F032F8002211466FF0090000F02CF84E
:1003A00000221146501F00F027F800221146101FAE
:1003B00000F022F800221146901E00F01DF80022E5
:1003C0001146501E00F018F800221146052000F0DA
:1003D00013F8BDE80840052000F002B824380240B8
:1003E00000F01F02012191404009800000F1E0204F
:1003F000C0F8001170470000F0B40E4B1B680C46AB
:10040000C3F30223C3F10705042D00D90425191DE8
:10041000072901D2002300E0DB1E012606FA05F1C0
:10042000491E214099409E40761E16403143F0BC43
:1004300001F060B80CED00E0064900F00702086822
:100440004FF6FF03184040EA0220034A10430860B9
:10045000704700000CED00E00000FA052DE9F047C0
:10046000DFF8BC8105460E46D8F8000000F0010018
:10047000B04214D2012E05D1D8F8001041F0040189
:10048000C8F80010D8F8001021F001013143C8F875
:100490000010D8F8000000F00100B04271D12878B7
:1004A000604C800705D52068A96820F0F00008435B
:1004B00020602878C00771D05A4A5A4B69680120D9
:1004C000083A2C33022910D003292ED001292FD02D
:1004D0005FEA402797FAA7FCBCFA8CFC4CF0200C92
:1004E0005FEA5C1C04D0126803E04FF40037F1E7C8
:1004F0001A6897FAA7F3B3FA83F303F01F0398403F
:10050000024262D0206820F0030008432060FFF719
:10051000E9FE6968074641F28830022910D00329B4
:100520001CD00129814626D034E04FF00077D1E776
:100530000227CFE7FFF7D6FEC11B494501D926E0C8
:1005400081462068C0F381000228F3D126E000BF75
:10055000FFF7C8FEC11B494501D918E08146206854
:10056000C0F381000328F3D118E000BFFFF7BAFE03
:10057000C11B49450BD82068C0F381000128F5D183
:100580000CE022E0FFF7AEFEC11B494502D9032073
:10059000BDE8F087206810F00C0FF3D1D8F80010F8
:1005A000404601F00101B14211D9012E03D1016889
:1005B00041F004010160016821F001013143016053
:1005C000006800F00100B04201D00120E0E7287887
:1005D000400705D52068E96820F4E0600843206002
:1005E0002878000706D52068296920F4605040EA81
:1005F000C100206000F052F82168F02292FAA2F2C5
:1006000001F0F001B2FA82F2D140074A515CC840D1
:10061000064908600020FFF77FFE0020B8E70000D1
:10062000003C024008380240ED1C00080400002095
:10063000014800687047000004000020084809498C
:10064000006809684FF4E06292FAA2F201F4E061F6
:10065000B2FA82F2D140044A515CC84070470000AF
:100660000400002008380240FD1C00080848094921
:10067000006809684FF4605292FAA2F201F46051E6
:10068000B2FA82F2D140044A515CC840704700007F
:100690000400002008380240FD1C00081E4A1168B2
:1006A00001F00C00042813D0082813D00C2813D014
:1006B000101F006800F460414FF4604090FAA0F011
:1006C000B0FA80F0C1404FF40040491C88407047A8
:1006D00012487047124870474FF4701393FAA3F30F
:1006E00001F47010B3FA83F3D8400E4B01F44001CB
:1006F0001268185C4FF4400393FAA3F3B3FA83F340
:10070000D940491CD20301D5054A00E0034A5043B1
:10071000B0FBF1F070470000083802400024F400FC
:1007200000127A00E41C00082DE9F84F0746007813
:10073000FB4EFC4DC0074FF0010428D0F8480830AC
:1007400001684FF40038C1F38101022907D0016824
:10075000C1F3810103291BD10068C00318D598FAA1
:10076000A8F0B0FA80F040F02000400901D03068D5
:1007700000E0286898FAA8F1B1FA81F101F01F01B0
:1007800004FA01F108425CD0786800287BD058E078
:10079000786801280AD008B1052811D0306820F403
:1007A00080303060306820F4802002E0306840F40F
:1007B00080303060786828B3FFF794FD81460BE005
:1007C000306840F480203060F0E700BFFFF78AFD1A
:1007D000A0EB0900642872D898FAA8F0B0FA80F06B
:1007E00040F02000400901D0306800E0286898FA05
:1007F000A8F1B1FA81F101F01F0104FA01F10842F8
:10080000E4D01EE0FFF76EFD814605E0FFF76AFDCC
:10081000A0EB09006428DED898FAA8F0B0FA80F0BE
:1008200040F02000400901D0306800E0286898FAC4
:10083000A8F1B1FA81F101F01F0104FA01F10842B7
:10084000E4D13878DFF8E08280074FF0000B4FF0FA
:1008500002095FD5B24808300168C1F3810101295E
:1008600007D00168C1F3810103291CD10068C003CE
:1008700019D499FAA9F0B0FA80F040F020004009AC
:1008800002D0306801E086E0286899FAA9F1B1FA4F
:1008900081F101F01F0104FA01F108422BD0F86840
:1008A000012878D127E0F868A8B394FAA4F0B0FA48
:1008B00080F048F82040FFF715FD824606E066E12B
:1008C000FFF710FDA0EB0A00022884D899FAA9F1DD
:1008D000B1FA81F141F02001490901D0316800E00D
:1008E000296899FAA9F0B0FA80F000F01F0004FA24
:1008F00000F00142E4D08A48001D01684FF4F8532B
:1009000093FAA3F33A69B3FA83F321F4F8519A40C6
:100910001143016025E0FFE794FAA4F1B1FA81F1F7
:1009200048F821B0FFF7DEFC824605E0FFF7DAFC6D
:10093000A0EB0A000228C8D899FAA9F0B0FA80F012
:1009400040F02000400901D0306800E0286899FAA2
:10095000A9F1B1FA81F101F01F0104FA01F1084295
:10096000E4D138784FF4007AC0067CD56C48083062
:10097000006810F00C0F0FD0B9694FF48070002997
:1009800072D090FAA0F0B0FA80F048F82040FFF75B
:10099000A9FC00907EE087E09AFAAAF0B0FA80F015
:1009A00040F02000400901D0306800E028689AFA41
:1009B000AAF1B1FA81F101F01F0104FA01F1084234
:1009C00002D0B86900286FD05548396A001D006808
:1009D00000F4604081421AD9084600F09DFD0028CD
:1009E00062D14F48001D01683A6A21F46041114309
:1009F000016001684FF07F4393FAA3F3FA69B3FAF9
:100A000083F321F07F419A401143016018E044488C
:100A1000001D026822F460420A43026001684FF040
:100A20007F4393FAA3F3FA69B3FA83F321F07F418A
:100A30009A4011430160386A00F06EFD0028CFD162
:100A40004FF4604191FAA1F1386AB1FA81F1C840DE
:100A50004FF40041401C8140314808300068F022CA
:100A600000F0F00001E070E040E092FAA2F2B2FA89
:100A700082F2D0402D4A105CC1402D480160002018
:100A8000FFF74AFC61E000BFFFF72CFC0099401A19
:100A900002287CD89AFAAAF0B0FA80F040F0200040
:100AA000400902D0306801E0BCE128689AFAAAF156
:100AB000B1FA81F101F01F0104FA01F10842E3D01B
:100AC0001748001D01683A6A21F460411143016032
:100AD00001684FF07F4393FAA3F3FA69B3FA83F303
:100AE00021F07F419A40114301602EE090FAA0F07E
:100AF000B0FA80F048F820B0FFF7F4FB009005E072
:100B0000FFF7F0FB0099401A0228C2D89AFAAAF01F
:100B1000B0FA80F040F0200040090BD030680AE0C5
:100B2000003802403438024000004742ED1C000803
:100B30000400002028689AFAAAF1B1FA81F101F0C4
:100B40001F0104FA01F10842DAD13878000753D5C1
:100B5000786948B394FAA4F0B0FA80F008EB80000A
:100B6000C0F88046FFF7BEFB009005E0FFF7BAFB38
:100B70000099401A02288CD899FAA9F0B0FA80F0AE
:100B800040F04000B4EB501F02D1306801E08EE02D
:100B9000286899FAA9F1B1FA81F101F01F0104FA6C
:100BA00001F21042E2D027E094FAA4F1B1FA81F107
:100BB00008EB8101C1F880B6FFF794FB009005E0D7
:100BC000FFF790FB0099401A022870D899FAA9F013
:100BD000B0FA80F040F04000B4EB501F01D1306813
:100BE00000E0286899FAA9F1B1FA81F101F01F013A
:100BF00004FA01F21042E3D1387840077BD59B48D4
:100C00004FF000090068C0000AD49848016841F01C
:100C10008051016000684FF0010900F080500090A1
:100C200093480168C90511D4016841F480710160DD
:100C3000FFF758FB009005E0FFF754FB0099401ABE
:100C4000642834D88A480068C005F5D5B8680128FA
:100C50000AD008B1052811D0286820F480702860D7
:100C6000286820F4806002E0286840F480702860E2
:100C7000B86848B3FFF736FB00900DE0286840F4F1
:100C800080602860F0E700BFFFF72CFB0099411A55
:100C900041F2883081420AD89AFAAAF0B0FA80F07C
:100CA00040F04000B4EB501F02D1306801E095E005
:100CB00028689AFAAAF1B1FA81F101F01F0104FA49
:100CC00001F21042E0D022E0FFF70CFB009007E0B9
:100CD000FFF708FB0099411A41F2883081427DD824
:100CE0009AFAAAF0B0FA80F040F04000B4EB501F3E
:100CF00002D1306801E012E028689AFAAAF1B1FA4C
:100D000081F101F01F0104FA01F21042E0D1B9F1C2
:100D1000000F04D05548016821F080510160786AC5
:100D2000E8B3DFF84891A9F11C09D9F80010C1F324
:100D30008101032976D002284FF080714FF0007AAC
:100D400058460BD091FAA1F1B1FA81F148F821008F
:100D5000FFF7C8FAB046074656466DE04FF080717F
:100D600091FAA1F1B1FA81F18A0042495050FFF79E
:100D7000B9FAB3468046564606E000BFFFF7B2FA1E
:100D8000A0EB0800022854D896FAA6F0B0FA80F03A
:100D900040F02000400903D0DBF8000001E061E0F2
:100DA000286896FAA6F1B1FA81F101F01F0104FA60
:100DB00001F10842E2D1D7E90A103A6BD9F80030C4
:100DC000014323F47D031A431143C9F800104FF087
:100DD000807090FAA0F0B0FA80F000E029E0810085
:100DE00024480C50FFF77EFA074604E0FFF77AFA32
:100DF000C01B02281DD896FAA6F0B0FA80F040F089
:100E00002000400902D0DBF8000000E0286896FAD4
:100E1000A6F1B1FA81F101F01F0104FA01F10842D3
:100E2000E4D01FE020E000BFFFF75CFAC01B0228FF
:100E300002D90320BDE8F88F96FAA6F0B0FA80F048
:100E400040F02000400902D0D8F8000000E02868F7
:100E500096FAA6F1B1FA81F101F01F0104FA01F14D
:100E60000842E1D10020E5E70120E3E72438024011
:100E700000700040000047424FF0E021042808695C
:100E800003D020F004000861704740F00400FAE746
:100E9000704710B5401EB0F1807F01D3012010BD16
:100EA0004FF0E02460610F21601700F023FB002069
:100EB000A06107202061002010BD10B5FFF7E8FFFA
:100EC00010BD10B5040003D094F8350010B107E050
:100ED000012010BD002084F83400204600F00CF8FA
:100EE000022084F83500211D206800F031FC01202B
:100EF00084F83500002010BD08B500680B49884211
:100F000012D10B48016841F008010160006800221D
:100F100000F00800009002211A20FFF76DFABDE8EA
:100F200008401A20FFF75CBA08BD0000000C014021
:100F300020380240022180F8351001680A6842F02A
:100F400001020A60012180F8351000207047016815
:100F5000CA6842F00102CA600068016841F00101FC
:100F600001600020704770B5044690F834000128F5
:100F700017D0012584F83450022084F83500206809
:100F8000826822F0770222F47F428260086850284B
:100F900037D00DDC202859D005DC88B3102841D18A
:100FA00051E0022070BD302853D040283AD13FE0B4
:100FB00060282ED070280BD0B0F5805F03D0B0F53C
:100FC000005F2FD110E02068816821F0070115E053
:100FD000CB68D1E90121206800F0F0FB2168886826
:100FE00040F0770088601DE0CB68D1E901212068DE
:100FF00000F0E4FB2068816841F48041816011E0E9
:101000001EE0CA684968206800F0EAFB50212068A9
:1010100006E0CA684968206800F0F3FB6021206898
:1010200000F0D6FB84F83550002084F8340070BD01
:10103000CA684968206800F0D3FB40212068EFE7C8
:1010400000212068ECE710212068E9E720212068D2
:10105000E6E730212068E3E7704770B50446006892
:1010600001694FF00005C943890715D4C168C94318
:10107000890711D4E91E016101202075206880696B
:101080008007204602D0FFF7E7FF04E000F078F881
:10109000204600F076F8257520680169C9434907A4
:1010A00017D4C168C943490713D46FF00401016123
:1010B000022020752068806910F4407F204602D00D
:1010C000FFF7CAFF04E000F05BF8204600F059F893
:1010D000257520680169C943090716D4C168C94349
:1010E000090712D46FF008010161042020752068FF
:1010F000C0698007204602D0FFF7AEFF04E000F091
:101100003FF8204600F03DF8257520680169C94385
:10111000C90617D4C168C943C90613D46FF01001BA
:101120000161082020752068C06910F4407F2046C6
:1011300002D0FFF791FF04E000F022F8204600F013
:1011400020F8257520680169C943C90708D1C1681D
:10115000C943C90704D1891E0161204600F012F875
:1011600020680169C943490609D4C168C9434906D1
:1011700005D46FF040010161204600F004F870BD15
:1011800070477047704770477047000038B5044695
:1011900000680168C26811F0010F02F4807204D087
:1011A0001AB1E16B41F00101E1630168C1F3400252
:1011B000416901F0010122B119B1E26B42F0040270
:1011C000E2630268C2F3800222B119B1E26B42F01D
:1011D0000202E2630268C2F3C00222B119B1E16BFC
:1011E00041F00801E1630168C068C1F3401100F0FB
:1011F000200019B110B1204600F016FB20680168EC
:10120000C068C1F3C01100F0800019B110B12046D0
:1012100000F0AEFC21680868CA68C0F3801002F0D4
:101220004002012570B16AB1CA68204622F040022E
:10123000CA6094F83910322911D080F8395000BFB3
:1012400000F0D6F8E06B002808D0206801684068FC
:10125000009084F839502046FFF796FF38BD2221D0
:1012600080F83910ECE770B5040004D094F8390028
:10127000002510B106E0012070BD84F838502046EA
:1012800000F020F8022084F839002068C16821F4B9
:101290000051C160204600F01BFB2068016921F469
:1012A000904101612068416921F02A014161206873
:1012B000C16841F40051C160E563012084F8390040
:1012C000002070BD00B50068124987B088421ED169
:1012D0001148016841F4003101600068694600F47A
:1012E000003005900C200090022001900120029017
:1012F00003200390072004900848FEF72BFF0022EC
:1013000001212620FFF778F82620FFF769F807B0BB
:1013100000BD0000004400402438024000000240AC
:10132000704700002DE9F047044690F839009946CF
:101330000D46012801D0222858D12DB322B394F8AC
:101340003800012852D0012684F838600027E7636E
:1013500094F8390022281AD05FF0120084F839007E
:10136000A284E2844FF48058E08C4B46401EE08417
:10137000A0684FF0000240454FF08001204613D195
:1013800000F029FC08BB04E00120BDE8F087322012
:10139000E4E728882168C0F308004860206908B1A4
:1013A0006D1C08E0AD1C06E000F015FC68B9216872
:1013B00015F8010B4860E08C0028D5D14B4600227F
:1013C0004021204600F007FC08B10320DDE794F837
:1013D0003900322806D084F8396000BF84F83870AC
:1013E0000020D2E7222084F83900F7E70220CCE77A
:1013F0007047FEE72DE9F043294887B0016841F0C6
:1014000020010160016801F020010591016841F0AF
:1014100001010160016801F001010591016841F0DD
:1014200004010160016801F004010591016841F0C7
:101430000201016000681B4F00F0020005900022CD
:10144000F0213846FEF748FFDFF85C8000223021AB
:101450004046FEF741FFDFF8549000220321484642
:10146000FEF73AFF0324F0200125002603948DE8BF
:10147000610069463846FEF76DFE302003948DE822
:10148000610069464046FEF765FE8DE870006946DA
:1014900048460394FEF75EFE07B0BDE8F083000007
:1014A0001C380240000002400008024000040240D4
:1014B0001FB50E480C494FF47A7201601F2141603C
:1014C0000021C0E902120161FFF7FBFC00B1FEE759
:1014D0004FF48050009069460448FFF744FD00280F
:1014E00000D0FEE71FBD0000000C014008000020F6
:1014F000FEE770470907090E002806DA00F00F0022
:1015000000F1E02080F8141D704700F1E02080F821
:10151000001470477047704738B51C4900230968AC
:101520001B4A11F0F00F23D118491C310C68E5005B
:10153000184C03D5216801F4C0540EE00D6845F045
:1015400080550D600D6805F08055009524680D6884
:1015500004F4C05425F080550D60B4F5C05F07D188
:10156000B0F5404F04D11068012340F00400106032
:10157000106820F0010018431060106800F00100AE
:10158000984201D0012038BD002038BD0838024003
:10159000003C024000700040704710B5FEF7A8FE06
:1015A000BDE81040FFF789BC1D4800B5016893B045
:1015B00021F4C05141F400610160012000900190CC
:1015C00002200990C0030A904FF440200B904FF482
:1015D00080000C906846FFF7A7F800B1FEE70F20E7
:1015E0000D9003200E9000200F901090119001217B
:1015F0000DA8FEF733FF00B1FEE7FFF719F84FF42F
:101600007A71B0FBF1F0FFF744FC0420FFF734FCE3
:1016100000221146501EFEF7EFFE13B000BD000081
:10162000007000400F48016841F4807101600D496D
:1016300008310A680C4B1A400A6002680B4B1A40CA
:101640000260026822F480220260086820F47D00B3
:1016500008600020091D086005494FF0006008601F
:1016600070470000003802400CC0FF88FEFFFEEE0D
:1016700008ED00E0F8B530A0006800902F48FFF7B3
:10168000ECFC2F4C002202212046FEF725FE002212
:1016900001212046FEF720FE2A4D00222021284667
:1016A000FEF71AFE002210212846FEF715FE264EF0
:1016B000002240213046FEF70FFE002280213046F6
:1016C000FEF70AFE002210213046FEF705FE00223A
:1016D00020213046FEF700FE0A23022269461B48FD
:1016E000FFF720FE012202212046FEF7F5FD012230
:1016F00011462046FEF7F0FD012220212846FEF784
:10170000EBFD012210212846FEF7E6FD01224021D3
:101710003046FEF7E1FD012280213046FEF7DCFD78
:10172000012210213046FEF7D7FD0122202130464C
:10173000FEF7D2FDF8BD0000BBBB00000800002092
:101740000004024000080240000002404000002067
:1017500070B502684FF08046134B144CB04203D072
:10176000984201D0A04205D122F070054A682A4370
:10177000B0420CD098420AD0A04208D00C4B9842FC
:1017800005D00C4B984202D00B4B984203D122F467
:101790004073CA681A4302608A68C262096881623B
:1017A0000121416170BD00000004004000080040BC
:1017B00000080140000C01400010014010B5846891
:1017C00042EA032224F47F440A432243826010BD8C
:1017D000826822F070020A4342F00701816070477C
:1017E00010B5036A046A24F001040462846924F0D9
:1017F000F00444EA021423F00A020A4384610262FC
:1018000010BD10B5036A23F0100303628369046AF4
:1018100023F4704343EA023224F0A00343EA0111A7
:101820008261016210BD000010B590F839102229C4
:1018300003D0322901D0022010BD8168B1F5805F4C
:1018400011D00169002901681FD0496801F07F03A8
:10185000816A4A1C82620B70C18D491E0904090C01
:10186000C18518D030E00269816A002A0268526896
:1018700005D0D2B20A80816A491C8162ECE7C2F3CA
:1018800008020A80816A891CF7E74A68816A4B1C52
:1018900083620A70E0E70168CA6822F02002CA6029
:1018A00090F83910322911D00168CA6822F4807288
:1018B000CA6001684A6922F001024A615FF00101D1
:1018C00080F83910FFF72CFD002010BD1221F7E73A
:1018D0002DE9F041044600680169E26821F44051B5
:1018E000114301612169A068E269084361691143FC
:1018F00008432168CA6849F20C639A430243CA60EC
:1019000020684169A26921F4407111434161E16994
:101910006425B1F5004F954821684FF032083DD05D
:1019200081427AD1FEF7A2FE00EBC00101EB00106C
:1019300061688900B0FBF1F6FEF798FE00EBC0018C
:1019400001EB001061688900B0FBF1F0B0FBF5F02D
:101950006FF01801484306EB800108EB0110B0FB63
:10196000F5F000F0F006FEF781FE00EBC00101EBA0
:10197000001061688900B0FBF1F0B0FBF5F006EBF8
:101980000016FEF773FE00EBC00101EB001061686A
:101990008900B0FBF1F7FEF769FED0E081423DD14E
:1019A000FEF764FE00EBC00101EB00106168490026
:1019B000B0FBF1F0B0FBF5F00601FEF757FE00EBCF
:1019C000C00101EB001061684900B0FBF1F7FEF7C0
:1019D0004DFE00EBC00101EB001061684900B0FB57
:1019E000F1F0B0FBF5F06FF01801484307EB800110
:1019F00008EBC100B0FBF5F000F0F80006EB400684
:101A0000FEF734FE00EBC00101EB001061684900F5
:101A1000B0FBF1F7FEF72AFE3CE055E0FEF70EFEC4
:101A200000EBC00101EB001061684900B0FBF1F070
:101A3000B0FBF5F00601FEF701FE00EBC00101EB83
:101A4000001061684900B0FBF1F7FEF7F7FD00EB0D
:101A5000C00101EB001061684900B0FBF1F0B0FB80
:101A6000F5F06FF01801484307EB800108EBC10067
:101A7000B0FBF5F000F0F80006EB4006FEF7DEFDE7
:101A800000EBC00101EB001061684900B0FBF1F709
:101A9000FEF7D4FD00EBC00101EB001061684900C6
:101AA000B0FBF1F0B0FBF5F06FF01801484307EB25
:101AB000800108EBC100B0FBF5F000F007002168E1
:101AC00030448860BDE8F081FEF7B8FD00EBC0014E
:101AD00001EB001061688900B0FBF1F6FEF7AEFD86
:101AE00000EBC00101EB001061688900B0FBF1F070
:101AF000B0FBF5F06FF01801484306EB800108EBEE
:101B00000110B0FBF5F000F0F006FEF797FD00EBDA
:101B1000C00101EB001061688900B0FBF1F0B0FB7F
:101B2000F5F006EB0016FEF789FD00EBC00101EBB6
:101B3000001061688900B0FBF1F7FEF77FFD00EB54
:101B4000C00101EB001061688900B0FBF1F0B0FB4F
:101B5000F5F06FF01801484307EB800108EB011026
:101B6000B0FBF5F000F00F00A9E7000000380140DD
:101B700090F83910122903D0322901D00220704781
:101B80008168B1F5805F016A0BD04A1C026202686D
:101B900009785160C18C491E0904090CC1840ED01A
:101BA00017E009880268C1F3080151600169002942
:101BB000016A02D0491C0162ECE7891CFBE701685D
:101BC000CA6822F08002CA600068C16841F0400122
:101BD000C160002070472DE9F0471D4690460E4633
:101BE0000446FEF77FFB07465FEA08004FF0000956
:101BF0004FF0010808D030E0681C05D095B1FEF721
:101C000071FBC01BA8420DD82068006836EA0000AE
:101C1000F2D127E0681C20D025B1FEF763FBC01B82
:101C2000A8421AD92068C16821F08001C1602068EB
:101C3000C16821F02001C1602068C16821F4807171
:101C4000C1602068416921F00101416184F8398057
:101C500084F838900320BDE8F0872068006836EAF1
:101C60000000D7D00020F6E70148FFF78FBA000048
:101C700040000020FEE702E008C8121F08C1002A49
:101C8000FAD170477047002001E001C1121F002AFD
:101C9000FBD17047FEF734FBFFF786FCFFF7AAFB8A
:101CA0000F480E490C2201604FF4E12141600021F0
:101CB0008160C160C0E904128161C161FFF7D3FA9C
:101CC00000B1FEE7FFF7F4FB05483838FFF732F9BB
:101CD00003483838FFF73BF9FEE7000000440040B6
:101CE00040000020030406080C10182030000000FB
:101CF00000000000000102030406070809000000BC
:101D00000001020304000000281D0008000000205C
:101D100008000000761C0008301D000808000020A4
:101D200078040000861C00080000000068FF1F0007
:04000005080000F5FA
:00000001FF
